:100000000C94D9000C94F6000C94F6000C94F600B5
:100010000C94F6000C94F6000C94F6000C94F60088
:100020000C94F6000C94F6000C94F6000C94D50396
:100030000C94F6000C94F6000C94F6000C94F60068
:100040000C94F6000C94F6000C94F6000C94F60058
:100050000C94F6000C94F6000C94F6000C94F60048
:100060000C94F6000C94F600484150505920484139
:100070004C4C4F5745454E20004841434B4144416D
:10008000592E434F4D2000424F4F0000000000000A
:100090000000000000000000000000000000000060
:1000A0000000000000000000000000000000000050
:1000B0000000000000000000000000000000000040
:1000C0000000000000000000000000000000000030
:1000D00000000000CCCC0000000000EEAAAAAAEEAE
:1000E00044CC4444EEEE22EE88EEEE22EE22EEAA5E
:1000F000AAEE2222EE88EE22EECC88EEAAEEEE22C6
:10010000448888EEAAEEAAEEEEAAEE22660044002B
:1001100044000000000000000000000000EE00EEBF
:1001200000000000000000000000000000000000CF
:10013000EEAAEEAAAACCAAEEAACCEE888888EECCCB
:10014000AAAAAACCEE88EE88EEEE88EE8888EE8821
:1001500088AAEEAAAAEEAAAAEE444444EE222222DB
:10016000AAEE88AACCCCAA88888888EEAAEEEEAA45
:10017000AA00CCAAAAAA44AAAAAA44EEAAEE8888EF
:1001800044AAAAEE66EEAACCEEAAEE88EE22EEEE25
:1001900044444444AAAAAAAAEEAAAAAAAA44AAAA79
:1001A000EEEEAA00AA4444AAAAAA444444EE224479
:1001B00088EE11241FBECFEFD4E0DEBFCDBF11E02B
:1001C000A0E0B1E0E2E5F8E002C005900D92A030B9
:1001D000B107D9F711E0A0E0B1E001C01D92AB304A
:1001E000B107E1F70E9446030C9427040C94000029
:1001F0002AEF30E004C0F9013197F1F701971816A2
:100200001906CCF3089588B1807E88B987B18F61D3
:1002100087B9089585B115B88BB183708BB984B156
:100220008FEF84B98AB18C6F8AB90895CF92DF922B
:10023000EF92FF920F931F93DF93CF9300D000D0E4
:100240000F92CDB7DEB7E82FE05285E0E89FD001EE
:1002500011249D0125573F4FF90174919D012457A9
:100260003F4FF90154919D0123573F4FF9014491AC
:100270009D0122573F4FF9018491A157BF4FFD01C6
:10028000249179835A834B838C832D8307E010E07C
:100290006E010894C11CD11CF62EEE246AEF70E0AA
:1002A000F89420E030E0F901EE0FFF1FEF5FFE4F02
:1002B00080819181880F991F918380832F5F3F4FA9
:1002C0002530310581F740E050E0DA01AA0FBB1F6D
:1002D000AF5FBE4F2D913C911197F601E40FF51FD2
:1002E000808190E0002E02C0959587950A94E2F7F0
:1002F000282B392B11963C932E934F5F5F4F45303F
:10030000510519F778948F2D9E2D03C0FB0131976D
:10031000F1F70197FFEF8F3F9F07C1F701501040A2
:100320000330110509F0BCCF0F900F900F900F9084
:100330000F90CF91DF911F910F91FF90EF90DF9081
:10034000CF9008951F93182F80E2612F0E9416010D
:1003500080E2612F0E94160180E2612F0E94160147
:1003600080E2612F0E9416011F910895F894109267
:1003700002011092010110920401109203011092E7
:1003800006011092050110920801109207011092C7
:100390000A01109209017894089541E050E06AEF53
:1003A00070E050C0F8941092020110920101509335
:1003B00004014093030150930601409305015093BB
:1003C00008014093070110920A01109209017894E4
:1003D000440F551F2AE030E003C0FB013197F1F7CD
:1003E000215030409FEF2F3F3907B9F790E240305E
:1003F0005907C0F2F8941092020110920101509333
:10040000040140930301509306014093050150936A
:1004100008014093070110920A0110920901789493
:10042000569547952AE030E003C0FB013197F1F77C
:10043000215030409FEF2F3F3907B9F74230510527
:10044000C8F68150882309F0ADCF0895F894109232
:100450000201109201011092040110920301109206
:1004600006011092050110920801109207011092E6
:100470000A01109209017894A82F41E050E06AEF38
:1004800070E0D8C01092040110920301F8945093C8
:100490000201409301017894440F551F84E190E0DC
:1004A00003C0FB013197F1F701972FEF8F3F9207C0
:1004B000C1F780E24030580748F3F8949A0150930E
:1004C000020140930101789484E190E003C0FB01B4
:1004D0003197F1F70197EFEF8F3F9E07C1F7F8943F
:1004E0001092020110920101309304012093030144
:1004F000789484E190E003C0FB013197F1F7019714
:10050000EFEF8F3F9E07C1F7F8941092040110920D
:1005100003013093060120930501789484E190E073
:1005200003C0FB013197F1F70197EFEF8F3F9E0773
:10053000C1F7F8941092060110920501309308015A
:1005400020930701789484E190E003C0FB01319788
:10055000F1F701972FEF8F3F9207C1F71092080133
:1005600010920701F89450930A014093090178947E
:100570005695479584E190E003C0FB013197F1F770
:100580000197EFEF8F3F9E07C1F74230510550F7BB
:10059000F8949A0150930A0140930901789484E1F8
:1005A00090E003C0FB013197F1F70197EFEF8F3F28
:1005B0009E07C1F7F89410920A0110920901309336
:1005C000080120930701789484E190E003C0FB01C7
:1005D0003197F1F70197EFEF8F3F9E07C1F7F8943E
:1005E0001092080110920701309306012093050133
:1005F000789484E190E003C0FB013197F1F7019713
:10060000EFEF8F3F9E07C1F7F8941092060110920A
:1006100005013093040120930301789484E190E074
:1006200003C0FB013197F1F701972FEF8F3F92073E
:10063000C1F7A150AA2309F025CFF8941092020126
:100640001092010110920401109203011092060110
:1006500010920501109208011092070110920A01F0
:1006600010920901789408951F93CF93DF93EC01C2
:10067000162F04C0612F0E9416012196FE0184915D
:100680008823C1F7DF91CF911F910895CF93DF9316
:1006900088B1807E88B987B18F6187B985B115B877
:1006A0008BB183708BB984B18FEF84B98AB18C6FB1
:1006B0008AB98091810089608093810080916F0068
:1006C000826080936F0080EB9BE090938900809321
:1006D00088007894CAEFD0E085E00E94260288E680
:1006E00090E068EC0E94340388EC0E94A20189E744
:1006F00090E068EC0E94340388EC0E94A20188E834
:1007000093E103C0FE013197F1F701972FEF8F3F7F
:100710009207C1F787E890E060E00E94340380ED23
:1007200097E003C0FE013197F1F701972FEF8F3F5C
:100730009207C1F7F89410920201109201011092F1
:10074000040110920301109206011092050110920B
:1007500008011092070110920A0110920901789481
:1007600089E10E94CD01F8941092020110920101DA
:1007700010920401109203011092060110920501DB
:10078000109208011092070110920A0110920901BB
:10079000789488EE93E003C0FE013197F1F701975A
:1007A0002FEF8F3F9207C1F797CF1F920F920FB68F
:1007B0000F9211242F933F934F935F936F937F93E7
:1007C0008F939F93EF93FF9388B1807E88B985B113
:1007D00015B88BB183708BB950910001652F70E013
:1007E000FB01EE0FFF1FEF5FFE4F8081918185B906
:1007F0002BB18081918136E0959587953A95E1F707
:100800008C7F822B8BB948B124E030E0261B370B5C
:1008100081E090E002C0880F991F2A95E2F7482BEB
:1008200048B95F5F50930001553011F410920001F8
:10083000FF91EF919F918F917F916F915F914F9178
:100840003F912F910F900FBE0F901F901895F89425
:02085000FFCFD8
:00000001FF
